{
  "_format": "hh-sol-artifact-1",
  "contractName": "MarketAdmin",
  "sourceName": "contracts/MarketAdmin.sol",
  "abi": [
    {
      "inputs": [
        {
          "internalType": "address",
          "name": "_feeDist",
          "type": "address"
        }
      ],
      "stateMutability": "nonpayable",
      "type": "constructor"
    },
    {
      "inputs": [
        {
          "internalType": "uint256",
          "name": "err",
          "type": "uint256"
        }
      ],
      "name": "CTokenError",
      "type": "error"
    },
    {
      "inputs": [
        {
          "internalType": "uint256",
          "name": "err",
          "type": "uint256"
        }
      ],
      "name": "ComptrollerError",
      "type": "error"
    },
    {
      "inputs": [],
      "name": "InvalidCToken",
      "type": "error"
    },
    {
      "inputs": [],
      "name": "OnlyComptrollerManager",
      "type": "error"
    },
    {
      "inputs": [],
      "name": "Unauthorized",
      "type": "error"
    },
    {
      "inputs": [],
      "name": "ZeroAddressProvided",
      "type": "error"
    },
    {
      "anonymous": false,
      "inputs": [
        {
          "indexed": false,
          "internalType": "address",
          "name": "comptroller",
          "type": "address"
        },
        {
          "indexed": false,
          "internalType": "address",
          "name": "oldManager",
          "type": "address"
        },
        {
          "indexed": false,
          "internalType": "address",
          "name": "newManager",
          "type": "address"
        }
      ],
      "name": "AcceptManager",
      "type": "event"
    },
    {
      "anonymous": false,
      "inputs": [
        {
          "indexed": false,
          "internalType": "address",
          "name": "comptroller",
          "type": "address"
        },
        {
          "indexed": false,
          "internalType": "address",
          "name": "manager",
          "type": "address"
        }
      ],
      "name": "ManagerInitialized",
      "type": "event"
    },
    {
      "anonymous": false,
      "inputs": [
        {
          "indexed": false,
          "internalType": "address",
          "name": "comptroller",
          "type": "address"
        },
        {
          "indexed": false,
          "internalType": "address",
          "name": "newPendingManager",
          "type": "address"
        }
      ],
      "name": "SetPendingManager",
      "type": "event"
    },
    {
      "inputs": [
        {
          "internalType": "address",
          "name": "comptroller",
          "type": "address"
        }
      ],
      "name": "acceptManager",
      "outputs": [],
      "stateMutability": "nonpayable",
      "type": "function"
    },
    {
      "inputs": [
        {
          "internalType": "contract Comptroller",
          "name": "comptroller",
          "type": "address"
        },
        {
          "internalType": "address",
          "name": "distributor",
          "type": "address"
        }
      ],
      "name": "addRewardsDistributor",
      "outputs": [],
      "stateMutability": "nonpayable",
      "type": "function"
    },
    {
      "inputs": [
        {
          "internalType": "contract Comptroller",
          "name": "comptroller",
          "type": "address"
        },
        {
          "internalType": "bool",
          "name": "isCEther",
          "type": "bool"
        },
        {
          "internalType": "bytes",
          "name": "constructorData",
          "type": "bytes"
        },
        {
          "internalType": "uint256",
          "name": "collateralFactorMantissa",
          "type": "uint256"
        }
      ],
      "name": "deployMarket",
      "outputs": [],
      "stateMutability": "nonpayable",
      "type": "function"
    },
    {
      "inputs": [],
      "name": "feeDistributor",
      "outputs": [
        {
          "internalType": "address",
          "name": "",
          "type": "address"
        }
      ],
      "stateMutability": "view",
      "type": "function"
    },
    {
      "inputs": [
        {
          "internalType": "address",
          "name": "comptroller",
          "type": "address"
        },
        {
          "internalType": "address",
          "name": "newManager",
          "type": "address"
        }
      ],
      "name": "proposeNewManager",
      "outputs": [],
      "stateMutability": "nonpayable",
      "type": "function"
    },
    {
      "inputs": [
        {
          "internalType": "contract Comptroller",
          "name": "comptroller",
          "type": "address"
        },
        {
          "internalType": "contract CToken",
          "name": "cToken",
          "type": "address"
        },
        {
          "internalType": "uint256",
          "name": "reduceAmount",
          "type": "uint256"
        }
      ],
      "name": "reduceReserves",
      "outputs": [],
      "stateMutability": "nonpayable",
      "type": "function"
    },
    {
      "inputs": [
        {
          "internalType": "contract Comptroller",
          "name": "comptroller",
          "type": "address"
        },
        {
          "internalType": "contract CToken",
          "name": "cToken",
          "type": "address"
        },
        {
          "internalType": "uint256",
          "name": "newAdminFeeMantissa",
          "type": "uint256"
        }
      ],
      "name": "setAdminFee",
      "outputs": [],
      "stateMutability": "nonpayable",
      "type": "function"
    },
    {
      "inputs": [
        {
          "internalType": "contract Comptroller",
          "name": "comptroller",
          "type": "address"
        },
        {
          "internalType": "address[]",
          "name": "cTokens",
          "type": "address[]"
        },
        {
          "internalType": "uint256[]",
          "name": "newBorrowCaps",
          "type": "uint256[]"
        }
      ],
      "name": "setBorrowCaps",
      "outputs": [],
      "stateMutability": "nonpayable",
      "type": "function"
    },
    {
      "inputs": [
        {
          "internalType": "contract Comptroller",
          "name": "comptroller",
          "type": "address"
        },
        {
          "internalType": "address",
          "name": "cToken",
          "type": "address"
        },
        {
          "internalType": "enum MarketAdmin.CTokenActions",
          "name": "action",
          "type": "uint8"
        },
        {
          "internalType": "bool",
          "name": "state",
          "type": "bool"
        }
      ],
      "name": "setCTokenActionState",
      "outputs": [],
      "stateMutability": "nonpayable",
      "type": "function"
    },
    {
      "inputs": [
        {
          "internalType": "contract Comptroller",
          "name": "comptroller",
          "type": "address"
        },
        {
          "internalType": "uint256",
          "name": "newCloseFactorMantissa",
          "type": "uint256"
        }
      ],
      "name": "setCloseFactor",
      "outputs": [],
      "stateMutability": "nonpayable",
      "type": "function"
    },
    {
      "inputs": [
        {
          "internalType": "contract Comptroller",
          "name": "comptroller",
          "type": "address"
        },
        {
          "internalType": "address",
          "name": "cToken",
          "type": "address"
        },
        {
          "internalType": "uint256",
          "name": "newCollateralFactorMantissa",
          "type": "uint256"
        }
      ],
      "name": "setCollateralFactor",
      "outputs": [],
      "stateMutability": "nonpayable",
      "type": "function"
    },
    {
      "inputs": [
        {
          "internalType": "contract Comptroller",
          "name": "comptroller",
          "type": "address"
        },
        {
          "internalType": "enum MarketAdmin.GlobalActions",
          "name": "action",
          "type": "uint8"
        },
        {
          "internalType": "bool",
          "name": "state",
          "type": "bool"
        }
      ],
      "name": "setGlobalActionState",
      "outputs": [],
      "stateMutability": "nonpayable",
      "type": "function"
    },
    {
      "inputs": [
        {
          "internalType": "contract Comptroller",
          "name": "comptroller",
          "type": "address"
        },
        {
          "internalType": "contract CToken",
          "name": "cToken",
          "type": "address"
        },
        {
          "internalType": "address",
          "name": "newIRM",
          "type": "address"
        }
      ],
      "name": "setIRM",
      "outputs": [],
      "stateMutability": "nonpayable",
      "type": "function"
    },
    {
      "inputs": [
        {
          "internalType": "contract Comptroller",
          "name": "comptroller",
          "type": "address"
        },
        {
          "internalType": "uint256",
          "name": "newLiquidationIncentiveMantissa",
          "type": "uint256"
        }
      ],
      "name": "setLiquidationIncentive",
      "outputs": [],
      "stateMutability": "nonpayable",
      "type": "function"
    },
    {
      "inputs": [
        {
          "internalType": "contract Comptroller",
          "name": "comptroller",
          "type": "address"
        },
        {
          "internalType": "contract CToken",
          "name": "cToken",
          "type": "address"
        },
        {
          "internalType": "string",
          "name": "_name",
          "type": "string"
        },
        {
          "internalType": "string",
          "name": "_symbol",
          "type": "string"
        }
      ],
      "name": "setNameAndSymbol",
      "outputs": [],
      "stateMutability": "nonpayable",
      "type": "function"
    },
    {
      "inputs": [
        {
          "internalType": "contract Comptroller",
          "name": "comptroller",
          "type": "address"
        },
        {
          "internalType": "address",
          "name": "newOracle",
          "type": "address"
        }
      ],
      "name": "setPriceOracle",
      "outputs": [],
      "stateMutability": "nonpayable",
      "type": "function"
    },
    {
      "inputs": [
        {
          "internalType": "contract Comptroller",
          "name": "comptroller",
          "type": "address"
        },
        {
          "internalType": "contract CToken",
          "name": "cToken",
          "type": "address"
        },
        {
          "internalType": "uint256",
          "name": "newReserveFactorMantissa",
          "type": "uint256"
        }
      ],
      "name": "setReserveFactor",
      "outputs": [],
      "stateMutability": "nonpayable",
      "type": "function"
    },
    {
      "inputs": [
        {
          "internalType": "contract Comptroller",
          "name": "comptroller",
          "type": "address"
        },
        {
          "internalType": "address[]",
          "name": "cTokens",
          "type": "address[]"
        },
        {
          "internalType": "uint256[]",
          "name": "newSupplyCaps",
          "type": "uint256[]"
        }
      ],
      "name": "setSupplyCaps",
      "outputs": [],
      "stateMutability": "nonpayable",
      "type": "function"
    },
    {
      "inputs": [
        {
          "internalType": "contract Comptroller",
          "name": "comptroller",
          "type": "address"
        },
        {
          "internalType": "address",
          "name": "cToken",
          "type": "address"
        }
      ],
      "name": "supportMarket",
      "outputs": [],
      "stateMutability": "nonpayable",
      "type": "function"
    },
    {
      "inputs": [
        {
          "internalType": "contract Comptroller",
          "name": "comptroller",
          "type": "address"
        },
        {
          "internalType": "contract CToken",
          "name": "cToken",
          "type": "address"
        },
        {
          "internalType": "uint256",
          "name": "withdrawAmount",
          "type": "uint256"
        }
      ],
      "name": "withdrawAdminFees",
      "outputs": [],
      "stateMutability": "nonpayable",
      "type": "function"
    }
  ],
  "bytecode": "0x60a06040523480156200001157600080fd5b5060405162001e9238038062001e92833981016040819052620000349162000085565b6001600160a01b0381166200005c57604051638474420160e01b815260040160405180910390fd5b60601b6001600160601b031916608052620000da565b80516200007f81620000c0565b92915050565b6000602082840312156200009857600080fd5b6000620000a6848462000072565b949350505050565b60006001600160a01b0382166200007f565b620000cb81620000ae565b8114620000d757600080fd5b50565b60805160601c611d99620000f960003960006101760152611d996000f3fe608060405234801561001057600080fd5b506004361061016c5760003560e01c8063708fb175116100cd5780639bd8f6e811610081578063de9fe68611610066578063de9fe686146102e0578063e47e65a3146102f3578063e4f2c9ea1461030657600080fd5b80639bd8f6e8146102ba578063a73ca443146102cd57600080fd5b806393aaf9c1116100b257806393aaf9c114610281578063993f59cb1461029457806399f975a1146102a757600080fd5b8063708fb1751461025b5780637ddc68521461026e57600080fd5b806336efc353116101245780633ebcbf2b116101095780633ebcbf2b14610222578063620d79f91461023557806367a74ddc1461024857600080fd5b806336efc353146101fc578063384b479c1461020f57600080fd5b806316b9a0f31161015557806316b9a0f3146101c3578063193cb86f146101d65780632b26d56b146101e957600080fd5b80630d43e8ad1461017157806311341211146101ae575b600080fd5b6101987f000000000000000000000000000000000000000000000000000000000000000081565b6040516101a59190611bb9565b60405180910390f35b6101c16101bc366004611a0b565b610319565b005b6101c16101d1366004611a3d565b61049e565b6101c16101e4366004611a0b565b610666565b6101c16101f736600461182a565b61078b565b6101c161020a36600461175d565b61084c565b6101c161021d3660046116d5565b61092d565b6101c16102303660046116af565b610a24565b6101c16102433660046117dd565b610b04565b6101c161025636600461175d565b610b8b565b6101c161026936600461192f565b610c10565b6101c161027c36600461182a565b610d35565b6101c161028f36600461177c565b610dbc565b6101c16102a2366004611a80565b610f88565b6101c16102b5366004611972565b61100d565b6101c16102c8366004611a80565b611172565b6101c16102db3660046118b1565b6111f7565b6101c16102ee366004611a0b565b611282565b6101c1610301366004611a0b565b6113a7565b6101c161031436600461175d565b6114cc565b6001600160a01b038381166000908152602081905260409020548491163314610355576040516337360b5360e11b815260040160405180910390fd5b83836000826001600160a01b0316638e8f294b836040518263ffffffff1660e01b81526004016103859190611bb9565b604080518083038186803b15801561039c57600080fd5b505afa1580156103b0573d6000803e3d6000fd5b505050506040513d601f19601f820116820180604052508101906103d4919061172d565b509050806103f5576040516323c2e22960e21b815260040160405180910390fd5b6040517fa7b820df000000000000000000000000000000000000000000000000000000008152610495906001600160a01b0388169063a7b820df9061043e908990600401611ce6565b602060405180830381600087803b15801561045857600080fd5b505af115801561046c573d6000803e3d6000fd5b505050506040513d601f19601f820116820180604052508101906104909190611ab0565b611551565b50505050505050565b6001600160a01b0383811660009081526020819052604090205484911633146104da576040516337360b5360e11b815260040160405180910390fd5b60008360018111156104fc57634e487b7160e01b600052602160045260246000fd5b141561059f576040517f8ebf63640000000000000000000000000000000000000000000000000000000081526001600160a01b03851690638ebf636490610547908590600401611c78565b602060405180830381600087803b15801561056157600080fd5b505af1158015610575573d6000803e3d6000fd5b505050506040513d601f19601f82011682018060405250810190610599919061170f565b50610660565b60018360018111156105c157634e487b7160e01b600052602160045260246000fd5b1415610660576040517f2d70db780000000000000000000000000000000000000000000000000000000081526001600160a01b03851690632d70db789061060c908590600401611c78565b602060405180830381600087803b15801561062657600080fd5b505af115801561063a573d6000803e3d6000fd5b505050506040513d601f19601f8201168201806040525081019061065e919061170f565b505b50505050565b6001600160a01b0383811660009081526020819052604090205484911633146106a2576040516337360b5360e11b815260040160405180910390fd5b83836000826001600160a01b0316638e8f294b836040518263ffffffff1660e01b81526004016106d29190611bb9565b604080518083038186803b1580156106e957600080fd5b505afa1580156106fd573d6000803e3d6000fd5b505050506040513d601f19601f82011682018060405250810190610721919061172d565b50905080610742576040516323c2e22960e21b815260040160405180910390fd5b6040517ffca7820b000000000000000000000000000000000000000000000000000000008152610495906001600160a01b0388169063fca7820b9061043e908990600401611ce6565b6001600160a01b0385811660009081526020819052604090205486911633146107c7576040516337360b5360e11b815260040160405180910390fd5b6040517f51a485e40000000000000000000000000000000000000000000000000000000081526001600160a01b038716906351a485e490610812908890889088908890600401611c47565b600060405180830381600087803b15801561082c57600080fd5b505af1158015610840573d6000803e3d6000fd5b50505050505050505050565b6001600160a01b038281166000908152602081905260409020548391163314610888576040516337360b5360e11b815260040160405180910390fd5b6040517fb9b5b153000000000000000000000000000000000000000000000000000000008152610928906001600160a01b0385169063b9b5b153906108d1908690600401611bb9565b602060405180830381600087803b1580156108eb57600080fd5b505af11580156108ff573d6000803e3d6000fd5b505050506040513d601f19601f820116820180604052508101906109239190611ab0565b611597565b505050565b6001600160a01b038281166000908152602081905260409020548391163314610969576040516337360b5360e11b815260040160405180910390fd5b6001600160a01b0382166109a9576040517f8474420100000000000000000000000000000000000000000000000000000000815260040160405180910390fd5b6001600160a01b0383811660009081526001602052604090819020805473ffffffffffffffffffffffffffffffffffffffff191692851692909217909155517f31611f252cc4dee76fe1196ab35a92c502a06a91ccdcf1472e3ee399e6a7a4bb90610a179085908590611bc7565b60405180910390a1505050565b6001600160a01b03818116600090815260016020526040902054163314610a77576040517f82b4290000000000000000000000000000000000000000000000000000000000815260040160405180910390fd5b6001600160a01b0381811660009081526020818152604080832080543373ffffffffffffffffffffffffffffffffffffffff198083168217909355600190945293829020805490911690555191909216917f7beda8998f16e1f7ef3ebc1ec5c58ec0d673fd4da91603c1802c9fcfceecb8f791610af8918591859190611be9565b60405180910390a15050565b6001600160a01b038381166000908152602081905260409020548491163314610b40576040516337360b5360e11b815260040160405180910390fd5b6040517fe4028eee000000000000000000000000000000000000000000000000000000008152610660906001600160a01b0386169063e4028eee906108d19087908790600401611c2c565b6001600160a01b038281166000908152602081905260409020548391163314610bc7576040516337360b5360e11b815260040160405180910390fd5b6040517f55ee1fe1000000000000000000000000000000000000000000000000000000008152610928906001600160a01b038516906355ee1fe1906108d1908690600401611bb9565b6001600160a01b038381166000908152602081905260409020548491163314610c4c576040516337360b5360e11b815260040160405180910390fd5b83836000826001600160a01b0316638e8f294b836040518263ffffffff1660e01b8152600401610c7c9190611bb9565b604080518083038186803b158015610c9357600080fd5b505afa158015610ca7573d6000803e3d6000fd5b505050506040513d601f19601f82011682018060405250810190610ccb919061172d565b50905080610cec576040516323c2e22960e21b815260040160405180910390fd5b6040517ff2b3abbd000000000000000000000000000000000000000000000000000000008152610495906001600160a01b0388169063f2b3abbd9061043e908990600401611bb9565b6001600160a01b038581166000908152602081905260409020548691163314610d71576040516337360b5360e11b815260040160405180910390fd5b6040517f607ef6c10000000000000000000000000000000000000000000000000000000081526001600160a01b0387169063607ef6c190610812908890889088908890600401611c47565b6001600160a01b038481166000908152602081905260409020548591163314610df8576040516337360b5360e11b815260040160405180910390fd5b6001836001811115610e1a57634e487b7160e01b600052602160045260246000fd5b1415610ebf576040517f18c882a50000000000000000000000000000000000000000000000000000000081526001600160a01b038616906318c882a590610e679087908690600401611c11565b602060405180830381600087803b158015610e8157600080fd5b505af1158015610e95573d6000803e3d6000fd5b505050506040513d601f19601f82011682018060405250810190610eb9919061170f565b5061065e565b6000836001811115610ee157634e487b7160e01b600052602160045260246000fd5b141561065e576040517f3bcf7ec10000000000000000000000000000000000000000000000000000000081526001600160a01b03861690633bcf7ec190610f2e9087908690600401611c11565b602060405180830381600087803b158015610f4857600080fd5b505af1158015610f5c573d6000803e3d6000fd5b505050506040513d601f19601f82011682018060405250810190610f80919061170f565b505050505050565b6001600160a01b038281166000908152602081905260409020548391163314610fc4576040516337360b5360e11b815260040160405180910390fd5b6040517f317b0b77000000000000000000000000000000000000000000000000000000008152610928906001600160a01b0385169063317b0b77906108d1908690600401611ce6565b6001600160a01b038681166000908152602081905260409020548791163314611049576040516337360b5360e11b815260040160405180910390fd5b86866000826001600160a01b0316638e8f294b836040518263ffffffff1660e01b81526004016110799190611bb9565b604080518083038186803b15801561109057600080fd5b505afa1580156110a4573d6000803e3d6000fd5b505050506040513d601f19601f820116820180604052508101906110c8919061172d565b509050806110e9576040516323c2e22960e21b815260040160405180910390fd5b6040517f34154d4c0000000000000000000000000000000000000000000000000000000081526001600160a01b038a16906334154d4c90611134908b908b908b908b90600401611cbf565b600060405180830381600087803b15801561114e57600080fd5b505af1158015611162573d6000803e3d6000fd5b5050505050505050505050505050565b6001600160a01b0382811660009081526020819052604090205483911633146111ae576040516337360b5360e11b815260040160405180910390fd5b6040517f4fd42e17000000000000000000000000000000000000000000000000000000008152610928906001600160a01b03851690634fd42e17906108d1908690600401611ce6565b6001600160a01b038581166000908152602081905260409020548691163314611233576040516337360b5360e11b815260040160405180910390fd5b6040517faba35b98000000000000000000000000000000000000000000000000000000008152610f80906001600160a01b0388169063aba35b98906108d1908990899089908990600401611c86565b6001600160a01b0383811660009081526020819052604090205484911633146112be576040516337360b5360e11b815260040160405180910390fd5b83836000826001600160a01b0316638e8f294b836040518263ffffffff1660e01b81526004016112ee9190611bb9565b604080518083038186803b15801561130557600080fd5b505afa158015611319573d6000803e3d6000fd5b505050506040513d601f19601f8201168201806040525081019061133d919061172d565b5090508061135e576040516323c2e22960e21b815260040160405180910390fd5b6040517f91dd36c6000000000000000000000000000000000000000000000000000000008152610495906001600160a01b038816906391dd36c69061043e908990600401611ce6565b6001600160a01b0383811660009081526020819052604090205484911633146113e3576040516337360b5360e11b815260040160405180910390fd5b83836000826001600160a01b0316638e8f294b836040518263ffffffff1660e01b81526004016114139190611bb9565b604080518083038186803b15801561142a57600080fd5b505afa15801561143e573d6000803e3d6000fd5b505050506040513d601f19601f82011682018060405250810190611462919061172d565b50905080611483576040516323c2e22960e21b815260040160405180910390fd5b6040517f601a0bf1000000000000000000000000000000000000000000000000000000008152610495906001600160a01b0388169063601a0bf19061043e908990600401611ce6565b6001600160a01b038281166000908152602081905260409020548391163314611508576040516337360b5360e11b815260040160405180910390fd5b6040517fa76b3fda000000000000000000000000000000000000000000000000000000008152610928906001600160a01b0385169063a76b3fda906108d1908690600401611bb9565b801561159457806040517f9351886500000000000000000000000000000000000000000000000000000000815260040161158b9190611ce6565b60405180910390fd5b50565b801561159457806040517f4ab41dde00000000000000000000000000000000000000000000000000000000815260040161158b9190611ce6565b80356115dc81611d2b565b92915050565b60008083601f8401126115f457600080fd5b50813567ffffffffffffffff81111561160c57600080fd5b60208301915083602082028301111561162457600080fd5b9250929050565b80356115dc81611d3f565b80516115dc81611d3f565b60008083601f84011261165357600080fd5b50813567ffffffffffffffff81111561166b57600080fd5b60208301915083600182028301111561162457600080fd5b80356115dc81611d47565b80356115dc81611d50565b80356115dc81611d5d565b80516115dc81611d5d565b6000602082840312156116c157600080fd5b60006116cd84846115d1565b949350505050565b600080604083850312156116e857600080fd5b60006116f485856115d1565b9250506020611705858286016115d1565b9150509250929050565b60006020828403121561172157600080fd5b60006116cd8484611636565b6000806040838503121561174057600080fd5b600061174c8585611636565b9250506020611705858286016116a4565b6000806040838503121561177057600080fd5b60006116f48585611683565b6000806000806080858703121561179257600080fd5b600061179e8787611683565b94505060206117af878288016115d1565b93505060406117c08782880161168e565b92505060606117d18782880161162b565b91505092959194509250565b6000806000606084860312156117f257600080fd5b60006117fe8686611683565b935050602061180f868287016115d1565b925050604061182086828701611699565b9150509250925092565b60008060008060006060868803121561184257600080fd5b600061184e8888611683565b955050602086013567ffffffffffffffff81111561186b57600080fd5b611877888289016115e2565b9450945050604086013567ffffffffffffffff81111561189657600080fd5b6118a2888289016115e2565b92509250509295509295909350565b6000806000806000608086880312156118c957600080fd5b60006118d58888611683565b95505060206118e68882890161162b565b945050604086013567ffffffffffffffff81111561190357600080fd5b61190f88828901611641565b9350935050606061192288828901611699565b9150509295509295909350565b60008060006060848603121561194457600080fd5b60006119508686611683565b935050602061196186828701611683565b9250506040611820868287016115d1565b6000806000806000806080878903121561198b57600080fd5b60006119978989611683565b96505060206119a889828a01611683565b955050604087013567ffffffffffffffff8111156119c557600080fd5b6119d189828a01611641565b9450945050606087013567ffffffffffffffff8111156119f057600080fd5b6119fc89828a01611641565b92509250509295509295509295565b600080600060608486031215611a2057600080fd5b6000611a2c8686611683565b935050602061180f86828701611683565b600080600060608486031215611a5257600080fd5b6000611a5e8686611683565b9350506020611a6f8682870161168e565b92505060406118208682870161162b565b60008060408385031215611a9357600080fd5b6000611a9f8585611683565b925050602061170585828601611699565b600060208284031215611ac257600080fd5b60006116cd84846116a4565b6000611ada8383611ae2565b505060200190565b611aeb81611d03565b82525050565b8183526000602084019350818060005b85811015611b2e57611b138284611cf4565b611b1d8882611ace565b975060208301925050600101611b01565b509495945050505050565b81835260006020840193507f07ffffffffffffffffffffffffffffffffffffffffffffffffffffffffffffff831115611b7157600080fd5b602083029250611b82838584611d1f565b50500190565b801515611aeb565b8183526000602084019350611ba6838584611d1f565b5050601f01601f19160190565b80611aeb565b602081016115dc8284611ae2565b60408101611bd58285611ae2565b611be26020830184611ae2565b9392505050565b60608101611bf78286611ae2565b611c046020830185611ae2565b6116cd6040830184611ae2565b60408101611c1f8285611ae2565b611be26020830184611b88565b60408101611c3a8285611ae2565b611be26020830184611bb3565b60408082528101611c59818688611af1565b90508181036020830152611c6e818486611b39565b9695505050505050565b602081016115dc8284611b88565b60608101611c948287611b88565b8181036020830152611ca7818587611b90565b9050611cb66040830184611bb3565b95945050505050565b60408082528101611cd1818688611b90565b90508181036020830152611c6e818486611b90565b602081016115dc8284611bb3565b6000611be260208401846115d1565b60006001600160a01b0382166115dc565b60006115dc82611d03565b82818337506000910152565b611d3481611d03565b811461159457600080fd5b801515611d34565b611d3481611d14565b6002811061159457600080fd5b80611d3456fea26469706673582212205838f2cb289d4ad35ec7bcac2076f5009c132b37fc0d65ac004ed283b845864764736f6c63430008040033",
  "linkReferences": {},
  "deployedLinkReferences": {}
}